{
  "_format": "hh-sol-artifact-1",
  "contractName": "Dex",
  "sourceName": "contracts/tokenSwap/erc20Swap/Dex.sol",
  "abi": [
    {
      "inputs": [],
      "stateMutability": "payable",
      "type": "constructor"
    },
    {
      "inputs": [],
      "name": "name",
      "outputs": [
        {
          "internalType": "string",
          "name": "",
          "type": "string"
        }
      ],
      "stateMutability": "view",
      "type": "function"
    },
    {
      "inputs": [
        {
          "internalType": "uint256",
          "name": "ethAmount",
          "type": "uint256"
        }
      ],
      "name": "swapEthForUSDC",
      "outputs": [],
      "stateMutability": "payable",
      "type": "function"
    },
    {
      "inputs": [
        {
          "internalType": "uint256",
          "name": "tokenAmount",
          "type": "uint256"
        }
      ],
      "name": "swapUSDCForEth",
      "outputs": [],
      "stateMutability": "nonpayable",
      "type": "function"
    },
    {
      "inputs": [],
      "name": "uniswapRouter",
      "outputs": [
        {
          "internalType": "contract IUniswapV2Router02",
          "name": "",
          "type": "address"
        }
      ],
      "stateMutability": "view",
      "type": "function"
    }
  ],
  "bytecode": "0x60c06040526003608081905262088caf60eb1b60a09081526100249160009190610050565b50600180546001600160a01b031916737a250d5630b4cf539739df2c5dacb4c659f2488d1790556100eb565b828054600181600116156101000203166002900490600052602060002090601f016020900481019282601f1061009157805160ff19168380011785556100be565b828001600101855582156100be579182015b828111156100be5782518255916020019190600101906100a3565b506100ca9291506100ce565b5090565b6100e891905b808211156100ca57600081556001016100d4565b90565b610a7a806100fa6000396000f3fe60806040526004361061003f5760003560e01c806306fdde03146100445780632cbea2b0146100ce578063735de9f7146100ed578063c52280aa1461011e575b600080fd5b34801561005057600080fd5b50610059610148565b6040805160208082528351818301528351919283929083019185019080838360005b8381101561009357818101518382015260200161007b565b50505050905090810190601f1680156100c05780820380516001836020036101000a031916815260200191505b509250505060405180910390f35b6100eb600480360360208110156100e457600080fd5b50356101d6565b005b3480156100f957600080fd5b506101026104d0565b604080516001600160a01b039092168252519081900360200190f35b34801561012a57600080fd5b506100eb6004803603602081101561014157600080fd5b50356104df565b6000805460408051602060026001851615610100026000190190941693909304601f810184900484028201840190925281815292918301828280156101ce5780601f106101a3576101008083540402835291602001916101ce565b820191906000526020600020905b8154815290600101906020018083116101b157829003601f168201915b505050505081565b6096420160606101e461086f565b6001546040805163d06ca61f60e01b815260048101878152602482019283528451604483015284519495506000946001600160a01b039094169363d06ca61f938993889392606490910190602080860191028083838c5b8381101561025357818101518382015260200161023b565b50505050905001935050505060006040518083038186803b15801561027757600080fd5b505afa15801561028b573d6000803e3d6000fd5b505050506040513d6000823e601f3d908101601f1916820160405260208110156102b457600080fd5b81019080805160405193929190846401000000008211156102d457600080fd5b9083019060208201858111156102e957600080fd5b825186602082028301116401000000008211171561030657600080fd5b82525081516020918201928201910280838360005b8381101561033357818101518382015260200161031b565b5050505090500160405250505060018151811061034c57fe5b602090810291909101810151600154604051637ff36ab560e01b8152600481018381523360448301819052606483018990526080602484019081528851608485015288519597506001600160a01b0390941695637ff36ab595349589958b958d94909360a490920191878201910280838360005b838110156103d85781810151838201526020016103c0565b50505050905001955050505050506000604051808303818588803b1580156103ff57600080fd5b505af1158015610413573d6000803e3d6000fd5b50505050506040513d6000823e601f3d908101601f19168201604052602081101561043d57600080fd5b810190808051604051939291908464010000000082111561045d57600080fd5b90830190602082018581111561047257600080fd5b825186602082028301116401000000008211171561048f57600080fd5b82525081516020918201928201910280838360005b838110156104bc5781810151838201526020016104a4565b505050509050016040525050505050505050565b6001546001600160a01b031681565b6096420160606104ed61096f565b6001546040805163d06ca61f60e01b815260048101878152602482019283528451604483015284519495506000946001600160a01b039094169363d06ca61f938993889392606490910190602080860191028083838c5b8381101561055c578181015183820152602001610544565b50505050905001935050505060006040518083038186803b15801561058057600080fd5b505afa158015610594573d6000803e3d6000fd5b505050506040513d6000823e601f3d908101601f1916820160405260208110156105bd57600080fd5b81019080805160405193929190846401000000008211156105dd57600080fd5b9083019060208201858111156105f257600080fd5b825186602082028301116401000000008211171561060f57600080fd5b82525081516020918201928201910280838360005b8381101561063c578181015183820152602001610624565b5050505090500160405250505060018151811061065557fe5b602090810291909101810151604080516323b872dd60e01b815233600482015230602482015260448101889052905191935073a0b86991c6218b36c1d19d4a2e9eb0ce3606eb48926323b872dd926064808401938290030181600087803b1580156106bf57600080fd5b505af11580156106d3573d6000803e3d6000fd5b505050506040513d60208110156106e957600080fd5b50506040805163095ea7b360e01b8152737a250d5630b4cf539739df2c5dacb4c659f2488d600482015260248101869052905173a0b86991c6218b36c1d19d4a2e9eb0ce3606eb489163095ea7b39160448083019260209291908290030181600087803b15801561075957600080fd5b505af115801561076d573d6000803e3d6000fd5b505050506040513d602081101561078357600080fd5b50506001546040516318cbafe560e01b8152600481018681526024820184905233606483018190526084830187905260a060448401908152865160a485015286516001600160a01b03909516946318cbafe5948a9488948a9490938c9360c401906020878101910280838360005b838110156108095781810151838201526020016107f1565b505050509050019650505050505050600060405180830381600087803b15801561083257600080fd5b505af1158015610846573d6000803e3d6000fd5b505050506040513d6000823e601f3d908101601f19168201604052602081101561043d57600080fd5b6040805160028082526060808301845292839291906020830190803683375050600154604080516315ab88c960e31b815290519394506001600160a01b039091169263ad5c464892506004808301926020929190829003018186803b1580156108d757600080fd5b505afa1580156108eb573d6000803e3d6000fd5b505050506040513d602081101561090157600080fd5b50518151829060009061091057fe5b60200260200101906001600160a01b031690816001600160a01b03168152505073a0b86991c6218b36c1d19d4a2e9eb0ce3606eb488160018151811061095257fe5b6001600160a01b0390921660209283029190910190910152905090565b60408051600280825260608083018452928392919060208301908036833701905050905073a0b86991c6218b36c1d19d4a2e9eb0ce3606eb48816000815181106109b557fe5b6001600160a01b03928316602091820292909201810191909152600154604080516315ab88c960e31b81529051919093169263ad5c4648926004808301939192829003018186803b158015610a0957600080fd5b505afa158015610a1d573d6000803e3d6000fd5b505050506040513d6020811015610a3357600080fd5b505181518290600190811061095257fefea26469706673582212203ac4720f273675545ad449226b72493f4fa1da170aad97bd2300bf23c62f26ab64736f6c63430006060033",
  "linkReferences": {},
  "deployedLinkReferences": {}
}