{
  "_format": "hh-sol-artifact-1",
  "contractName": "SwapTokenForToken",
  "sourceName": "contracts/tokenSwap/erc20Swap/SwapTokenForToken.sol",
  "abi": [
    {
      "inputs": [
        {
          "internalType": "address",
          "name": "_tokenIn",
          "type": "address"
        },
        {
          "internalType": "address",
          "name": "_tokenOut",
          "type": "address"
        },
        {
          "internalType": "uint256",
          "name": "_amountIn",
          "type": "uint256"
        },
        {
          "internalType": "uint256",
          "name": "_amountOutMin",
          "type": "uint256"
        },
        {
          "internalType": "address",
          "name": "_to",
          "type": "address"
        }
      ],
      "name": "swap",
      "outputs": [],
      "stateMutability": "nonpayable",
      "type": "function"
    }
  ],
  "bytecode": "0x608060405234801561001057600080fd5b506104da806100206000396000f3fe608060405234801561001057600080fd5b506004361061002b5760003560e01c8063d5bcb9b514610030575b600080fd5b61004361003e3660046102c9565b610045565b005b6040516323b872dd60e01b8152336004820152306024820152604481018490526001600160a01b038616906323b872dd906064016020604051808303816000875af1158015610098573d6000803e3d6000fd5b505050506040513d601f19601f820116820180604052508101906100bc9190610320565b6100c557600080fd5b60405163095ea7b360e01b8152737a250d5630b4cf539739df2c5dacb4c659f2488d6004820152602481018490526001600160a01b0386169063095ea7b3906044016020604051808303816000875af1158015610126573d6000803e3d6000fd5b505050506040513d601f19601f8201168201806040525081019061014a9190610320565b61015357600080fd5b6040805160038082526080820190925260009160208201606080368337019050509050858160008151811061018a5761018a61035f565b60200260200101906001600160a01b031690816001600160a01b03168152505073c02aaa39b223fe8d0a0e5c4f27ead9083c756cc2816001815181106101d2576101d261035f565b60200260200101906001600160a01b031690816001600160a01b03168152505084816002815181106102065761020661035f565b6001600160a01b03909216602092830291909101909101526040516338ed173960e01b8152737a250d5630b4cf539739df2c5dacb4c659f2488d906338ed17399061025d9087908790869088904290600401610375565b6000604051808303816000875af115801561027c573d6000803e3d6000fd5b505050506040513d6000823e601f3d908101601f191682016040526102a491908101906103e6565b50505050505050565b80356001600160a01b03811681146102c457600080fd5b919050565b600080600080600060a086880312156102e157600080fd5b6102ea866102ad565b94506102f8602087016102ad565b93506040860135925060608601359150610314608087016102ad565b90509295509295909350565b60006020828403121561033257600080fd5b8151801515811461034257600080fd5b9392505050565b634e487b7160e01b600052604160045260246000fd5b634e487b7160e01b600052603260045260246000fd5b600060a082018783526020878185015260a0604085015281875180845260c086019150828901935060005b818110156103c55784516001600160a01b0316835293830193918301916001016103a0565b50506001600160a01b03969096166060850152505050608001529392505050565b600060208083850312156103f957600080fd5b825167ffffffffffffffff8082111561041157600080fd5b818501915085601f83011261042557600080fd5b81518181111561043757610437610349565b8060051b604051601f19603f8301168101818110858211171561045c5761045c610349565b60405291825284820192508381018501918883111561047a57600080fd5b938501935b828510156104985784518452938501939285019261047f565b9897505050505050505056fea2646970667358221220e0ad0fc57db27090315b7f27e40b039ce932e054bcd73efb39abaf9b9527a44564736f6c634300080f0033",
  "linkReferences": {},
  "deployedLinkReferences": {}
}